:020000040800F2
:100000000000082085220108F906010805070108FB
:10001000650701086D070108750701080000000069
:10002000000000000000000000000000313D00085A
:100030007D07010800000000413F00088907010812
:10004000D5220108D5220108D5220108D5220108B0
:10005000D5220108D5220108D5220108D5220108A0
:10006000D5220108D5220108D5220108D522010890
:10007000D5220108D5220108D5220108D522010880
:10008000D5220108D5220108D5220108D522010870
:10009000D5220108D5220108D5220108D522010860
:1000A000D5220108D5220108D5220108D522010850
:1000B000C5030108D5220108D5220108D52201086F
:1000C000D5220108D5220108D5220108D522010830
:1000D000D5220108D5220108D5220108D522010820
:1000E000D5220108D5220108D5220108D522010810
:1000F000A1070108D5220108D5220108D52201084F
:10010000D5220108D5220108D5220108D5220108EF
:10011000D5220108D5220108D5220108D5220108DF
:10012000D5220108D5220108D5220108D5220108CF
:10013000D5220108C1750008D5220108D522010881
:10014000D5220108D5220108D5220108D5220108AF
:10015000D5220108D5220108D5220108D52201089F
:10016000D5220108D5220108D5220108D52201088F
:10017000D5220108D5220108D5220108000000007F
:10018000D5220108D5220108D5220108D52201086F
:10019000D5220108D5220108D5220108D52201085F
:1001A000D5220108D5220108D5220108D52201084F
:1001B000D5220108D5220108D5220108D52201083F
:1001C000D5220108D5220108D5220108D52201082F
:1001D000D5220108D5220108D5220108D52201081F
:1001E000D5220108D5220108D5220108D52201080F
:0801F000D5220108D522010807
:1002000010B5054C237833B9044B13B10448AFF350
:1002100000800123237010BD70BB0020000000008F
:1002200030240108084B10B51BB108480849AFF34A
:1002300000800848036803B910BD074B002BFBD0B2
:10024000BDE81040184700BF00000000302401083E
:1002500074BB002070BB00200000000053B94AB9F5
:10026000002908BF00281CBF4FF0FF314FF0FF30BE
:1002700000F03CB882B0EC462DE9005000F01EF8CA
:10028000DDF804E002B00CBC704700BF2DE9F0417E
:10029000904606460F461D46069C00F029F808FBCE
:1002A00001FC8646A8FB002300FB05C5B21A2B44BF
:1002B00067EB0303C4E90023BDE8F0812DE9F843AF
:1002C0001D46174680468946089E00F053F900FBFC
:1002D00005F3A0FB074507FB0137B8EB04043D44D9
:1002E00069EB0505C6E90045BDE8F883704700BF26
:1002F00000292DE9F047C0F2A2800026002BC0F2B1
:1003000098808C4690469E46154604460F46CBBBC9
:100310008A4256D9B2FA82F33BB1C3F120029F4020
:100320009D409C4020FA02F21743280C220C1FFA31
:1003300085FEB7FBF0F100FB11770EFB01F342EAFB
:100340000747BB4207D97F1980F00181BB4240F2C9
:10035000FE8002392F44FF1AA4B2B7FBF0F300FB72
:1003600013770EFB03FE44EA0747BE4506D97F1903
:1003700080F0EB80BE4540F2E880023B43EA014357
:10038000002203E08B420FD900221346341C4FF0A9
:10039000000518BF0124604265EB450158405140FB
:1003A00000196941BDE8F087B3FA83F2002A40F0F2
:1003B0008380804540F2CD808B42C0F0CA801346D6
:1003C000E4E712B90123B3FBF2F5B5FA85F2002A8E
:1003D0003BD1781B4FEA154E1FFA85FC0122210CF8
:1003E000B0FBFEF80EFB18000CFB08F341EA0047D7
:1003F000BB4208D97F1980F0B080BB4240F2AD808B
:10040000A8F102082F44FF1AA4B2B7FBFEF30EFBBB
:1004100013770CFB03FC44EA0747BC4506D97F1958
:1004200080F09980BC4540F29680023B43EA084345
:10043000ACE752426FEA060663EB430361E74042D2
:100440004FF0FF3661EB410158E79540C2F12001C2
:1004500007FA02F34FEA154ECF4024FA01F1944017
:100460001FFA85FC1943B7FBFEF24FEA11480EFB59
:1004700012770CFB02F348EA0747BB4205D97F1904
:1004800071D2BB426FD9023A2F44FF1A89B2B7FB2F
:10049000FEF80EFB18770CFB08F041EA0743984280
:1004A00006D95B1961D298425FD9A8F102082B44A2
:1004B000181A48EA024292E7C2F1200703FA02FE44
:1004C00008FA02F5914028FA07F32CFA07FCF840E5
:1004D00043EA0E0E08434FEA1E48070C1FFA8EFA35
:1004E000BCFBF8F908FB19CC0AFB09F147EA0C4CF4
:1004F000614507D91CEB0E0C32D2614530D9A9F108
:100500000209F444C1EB0C0C80B2BCFBF8F308FB0D
:1005100013CC0AFB03FA40EA0C418A4506D911EBD9
:100520000E0125D28A4523D9023B714443EA09438F
:10053000CAEB0101A3FB0589494503D303D19440CC
:10054000444500D2013B002220E7013B16E7013978
:1005500001E701231AE7013B68E708F1FF3852E79A
:1005600009F1FF39CEE7013A8FE708F1FF389FE73D
:10057000013BDBE72DE9F043002B40D18A420446E2
:1005800015464AD9B2FA82F30F464BB1C3F12006A1
:10059000994000FA03F402FA03F5F04040EA01073B
:1005A000290C260C1FFA85FEB7FBF1F001FB107732
:1005B0000EFB00F246EA07439A4207D95B1980F026
:1005C000EA809A4240F2E78002382B449A1AA4B299
:1005D000B2FBF1F301FB13220EFB03FE44EA0242DD
:1005E000964506D9521980F0DA80964540F2D780B8
:1005F000023B43EA004000263146BDE8F0838B42CF
:1006000044D8B3FA83F6002E45D1824240F2BF802F
:100610008B42C0F0BC803046EEE712B90125B5FB35
:10062000F2F5B5FA85F2002A7BD14A1B2F0C1FFA8E
:1006300085FE0126230CB2FBF7F007FB10220EFB10
:1006400000FC43EA02418C4507D9491980F0A1809A
:100650008C4540F29E8002382944CCEB0101A4B2C3
:10066000B1FBF7F307FB13110EFB03FE44EA014451
:10067000A64506D9641980F09080A64540F28D8089
:10068000023B43EA00403146BDE8F0830026304695
:100690003146BDE8F083C6F12005B34002FA06F703
:1006A00001FA06F4EA40E94020FA05F51A43254329
:1006B0004FEA124C4FEA154E93B2B1FBFCF80CFB1B
:1006C000181103FB08F44EEA01418C4206D989183F
:1006D00069D28C4267D9A8F102081144091BADB256
:1006E000B1FBFCF40CFB141103FB04FE45EA0143CF
:1006F0009E4505D99B1854D29E4552D9023C1344BD
:1007000044EA0844CEEB0303A4FB07894B4503D31B
:1007100051D1B04040454ED20026601E3146BDE862
:10072000F083C2F12006954001FA02F300FA02F4C8
:100730002F0CF140F0401FFA85FEB1FBF7F618438D
:1007400007FB16110EFB06F24FEA104C4CEA014370
:100750009A4205D95B1929D29A4227D9023E2B44E5
:100760009B1A80B2B3FBF7FC07FB1C330EFB0CF1AA
:1007700040EA0343994206D95B1919D2994217D925
:10078000ACF1020C2B445A1A4CEA064652E70120FF
:1007900032E7013861E7013818E7013B71E7013BB7
:1007A00027E7013CACE708F1FF3897E7013ED7E7C0
:1007B0000CF1FF3CE7E7204600261DE780B500AFBF
:1007C000084A084B1B6843F400731360032000F0D1
:1007D00003F900200FF038FF0FF0C4FE0023184685
:1007E00080BD00BF003C024080B400AF044B1B68DA
:1007F0000133034A1360BD465DF8047B704700BFB8
:10080000CCCE002080B400AF034B1B681846BD4619
:100810005DF8047B704700BFCCCE002080B584B06B
:1008200000AF78600023FB60FFF7ECFFF86000BFCB
:10083000FFF7E8FF0246FB68D21A7B689A42F7D3BB
:100840001037BD4680BD00BF80B485B000AF786072
:100850007B6803F00703FB600B4BDB68BB60BA6887
:100860004FF6FF031340BB60FB681A02BB681A43D4
:10087000064B1343BB60044ABB68D3601437BD46C4
:100880005DF8047B704700BF00ED00E00000FA0552
:1008900080B400AF044BDB6803F4E0631B0A184626
:1008A000BD465DF8047B704700ED00E080B483B086
:1008B00000AF0346FB71084997F907305B09FA79E5
:1008C00002F01F02012000FA02F241F823200C3747
:1008D000BD465DF8047B704700E100E080B483B062
:1008E00000AF03463960FB7197F90730002B0BDA34
:1008F0000D49FB7903F00F03043B3A68D2B21201B1
:10090000D2B20B441A7609E0084997F907303A68E1
:10091000D2B21201D2B20B4483F800230C37BD4689
:100920005DF8047B704700BF00ED00E000E100E0EF
:1009300080B489B000AFF860B9607A60FB6803F0FA
:100940000703FB61FB69C3F10703042B28BF0423E2
:10095000BB61FB690433062B02D9FB69033B00E052
:1009600000237B61BB69012202FA03F35A1EBB68B4
:100970001A407B699A407B69012101FA03F3591EF1
:100980007B680B40134318462437BD465DF8047B53
:10099000704700BF80B582B000AF78607B68013BD4
:1009A000B3F1807F01D301230FE00A4A7B68013B4A
:1009B00053604FF0FF300F21FFF790FF054B0022EF
:1009C0009A60044B07221A60002318460837BD4678
:1009D00080BD00BF10E000E080B582B000AF78605D
:1009E0007868FFF731FF0837BD4680BD80B586B017
:1009F00000AF0346B9607A60FB7300237B61FFF7A9
:100A000047FF78617869B9687A68FFF791FF024615
:100A100097F90F3018461146FFF760FF1837BD46AB
:100A200080BD00BF80B582B000AF0346FB7197F96F
:100A300007301846FFF73AFF0837BD4680BD00BFB4
:100A400080B582B000AF78607868FFF7A3FF0346F7
:100A500018460837BD4680BD80B483B000AF7860CB
:100A60007B68042B06D1094A084B1B6843F004033A
:100A7000136005E0054A054B1B6823F0040313606F
:100A80000C37BD465DF8047B704700BF10E000E006
:100A900080B489B000AF786039600023FB61002327
:100AA0007B6100233B610023BB610023FB6171E19B
:100AB000FB69012202FA03F37B613B681A687B69D8
:100AC00013403B613A697B699A4240F060813B6820
:100AD0005B68022B03D03B685B68122B22D1FB6959
:100AE000DA087B68083253F82230BB61FB6903F0F7
:100AF00007039B001A460F239340DB43BA69134058
:100B0000BB613B681B69FA6902F0070292009340DF
:100B1000BA691343BB61FB69DA087B680832B969BB
:100B200043F822107B681B68BB61FB695B001A46B7
:100B300003239340DB43BA691340BB613B685B68A6
:100B400003F00303FA6952009340BA691343BB618F
:100B50007B68BA691A603B685B68012B0BD03B6805
:100B60005B68022B07D03B685B68112B03D03B68A6
:100B70005B68122B2FD17B689B68BB61FB695B00B4
:100B80001A4603239340DB43BA691340BB613B68B9
:100B9000DB68FA6952009340BA691343BB617B6812
:100BA000BA699A607B685B68BB61FB69012202FAE3
:100BB00003F3DB43BA691340BB613B685B6803F036
:100BC00010031A09FB6902FA03F3BA691343BB6104
:100BD0007B68BA695A607B68DB68BB61FB695B0054
:100BE0001A4603239340DB43BA691340BB613B6859
:100BF0009B68FA6952009340BA691343BB617B68F2
:100C0000BA69DA603B685B6803F08053002B00F040
:100C1000BE80654A644B5B6C43F480435364624B13
:100C20005B6C03F48043FB60FB68604AFB699B08D4
:100C3000023352F82330BB61FB6903F003039B00CE
:100C40001A460F239340DB43BA691340BB617B68AC
:100C5000574A934237D07B68564A934231D07B68DB
:100C6000554A93422BD07B68544A934225D07B68E7
:100C7000534A93421FD07B68524A934219D07B68F3
:100C8000514A934213D07B68504A93420DD07B68FF
:100C90004F4A934207D07B684E4A934201D10923C1
:100CA00012E00A2310E008230EE007230CE00623DD
:100CB0000AE0052308E0042306E0032304E00223FE
:100CC00002E0012300E00023FA6902F0030292002F
:100CD0009340BA691343BB613449FB699B080233F3
:100CE000BA6941F823203C4B1B68BB613B69DB437D
:100CF000BA691340BB613B685B6803F48033002B27
:100D000003D0BA693B691343BB61334ABB691360C3
:100D1000314B5B68BB613B69DB43BA691340BB6124
:100D20003B685B6803F40033002B03D0BA693B696E
:100D30001343BB61284ABB695360274B9B68BB6167
:100D40003B69DB43BA691340BB613B685B6803F4F2
:100D50008013002B03D0BA693B691343BB611E4A61
:100D6000BB6993601C4BDB68BB613B69DB43BA69C1
:100D70001340BB613B685B6803F40013002B03D096
:100D8000BA693B691343BB61134ABB69D360FB6912
:100D90000133FB61FB690F2B7FF68AAE2437BD461A
:100DA0005DF8047B704700BF003802400038014006
:100DB000000002400004024000080240000C024013
:100DC000001002400014024000180240001C0240C3
:100DD0000020024000240240003C014080B483B067
:100DE00000AF78600B467B807B685A697B885A40ED
:100DF0007B685A610C37BD465DF8047B704700BFC5
:100E000080B582B000AF00237B60224A214B1B6C6F
:100E100043F0805313641F4B1B6C03F080533B6003
:100E20003B681D4A1C4B1B6843F480331360FFF77B
:100E3000E9FC786009E0FFF7E5FC02467B68D31A1D
:100E4000B3F57A7F01D9032320E0134B5B6803F4E9
:100E50008033002BEFD0104A0F4B1B6843F4003354
:100E60001360FFF7CFFC786009E0FFF7CBFC024688
:100E70007B68D31AB3F57A7F01D9032306E0064BCA
:100E80005B6803F40033002BEFD0002318460837CB
:100E9000BD4680BD003802400070004080B590B073
:100EA00000AF78600023FB637B681B6803F00103DD
:100EB000002B00F08580A04B9B6803F00C03042BF3
:100EC0000BD09D4B9B6803F00C03082B12D19A4B5F
:100ED0005B6803F48003002B0CD0974B1B6803F472
:100EE0000033002B05D07B685B68002B01D1012308
:100EF00063E265E07B685B68B3F5803F06D18E4AAC
:100F00008D4B1B6843F4803313602EE07B685B6875
:100F1000002B0CD1884A884B1B6823F48033136064
:100F2000854A854B1B6823F4802313601DE07B6892
:100F30005B68B3F5A02F0CD17F4A7F4B1B6843F44D
:100F4000802313607C4A7C4B1B6843F4803313601E
:100F50000BE0794A784B1B6823F480331360764AA0
:100F6000754B1B6823F4802313607B685B68002B40
:100F700013D0FFF747FCF86308E0FFF743FC024695
:100F8000FB6BD31A642B01D9032316E26A4B1B684F
:100F900003F40033002BF0D012E0FFF733FCF863CA
:100FA00008E0FFF72FFC0246FB6BD31A642B01D934
:100FB000032302E2604B1B6803F40033002BF0D1E3
:100FC0007B681B6803F00203002B7DD05A4B9B68A3
:100FD00003F00C03002B0BD0574B9B6803F00C0362
:100FE000082B26D1544B5B6803F48003002B20D1DF
:100FF000514B1B6803F00203002B05D07B68DB68B4
:10100000012B01D00123D8E14B484B4B1B6823F047
:10101000F8027B681969F823BB63BB6B93FAA3F3EF
:101020007B637B6BB3FA83F301FA03F3134303602F
:101030004AE07B68DB68002B2DD03F4A3E4B1B68A3
:1010400043F001031360FFF7DDFBF86308E0FFF7EF
:10105000D9FB0246FB6BD31A022B01D90323ACE167
:10106000354B1B6803F00203002BF0D03248324BA3
:101070001B6823F0F8027B681969F8233B633B6B1C
:1010800093FAA3F3FB62FB6AB3FA83F301FA03F367
:101090001343036018E0284A274B1B6823F0010321
:1010A0001360FFF7AFFBF86308E0FFF7ABFB024606
:1010B000FB6BD31A022B01D903237EE11E4B1B6865
:1010C00003F00203002BF0D17B681B6803F00803D8
:1010D000002B39D07B685B69002B19D0164A164B60
:1010E0005B6F43F001035367FFF78CFBF86308E085
:1010F000FFF788FB0246FB6BD31A022B01D90323AF
:101100005BE10D4B5B6F03F00203002BF0D01BE0A3
:10111000094A094B5B6F23F001035367FFF772FB2A
:10112000F8630BE0FFF76EFB0246FB6BD31A022B52
:1011300004D9032341E100BF00380240A14B5B6F9B
:1011400003F00203002BEDD17B681B6803F004035E
:10115000002B00F08D809B4A9A4B1B6C43F0805310
:101160001364984B1B6C03F08053BB60BB68964ABA
:10117000954B1B6843F480731360FFF743FBF863E0
:1011800008E0FFF73FFB0246FB6BD31A642B01D943
:10119000032312E18C4B1B6803F48073002BF0D007
:1011A0007B689B68012B06D1864A864B1B6F43F0F8
:1011B000010313672DE07B689B68002B0CD1814AEB
:1011C000804B1B6F23F0010313677E4A7D4B1B6F1F
:1011D00023F0040313671CE07B689B68052B0CD18C
:1011E000784A784B1B6F43F004031367754A754BBD
:1011F0001B6F43F0010313670BE0724A714B1B6FC7
:1012000023F0010313676F4A6E4B1B6F23F0040337
:1012100013677B689B68002B15D0FFF7F3FAF86320
:101220000AE0FFF7EFFA0246FB6BD31A41F288326D
:10123000934201D90323C0E0624B1B6F03F002030A
:10124000002BEED014E0FFF7DDFAF8630AE0FFF7B9
:10125000D9FA0246FB6BD31A41F28832934201D984
:101260000323AAE0574B1B6F03F00203002BEED1C0
:101270007B689B69002B00F09F80524B9B6803F0BA
:101280000C03082B00F096807B689B69022B77D1BA
:101290004C4A4C4B1B6823F080731360FFF7B2FA83
:1012A000F86308E0FFF7AEFA0246FB6BD31A022B95
:1012B00001D9032381E0434B1B6803F00073002B2B
:1012C000F0D140487B68DA697B681B6A1A437B6807
:1012D000596A47F6C073BB62BB6A93FAA3F37B6299
:1012E0007B6AB3FA83F301FA03F31A437B689B6AC0
:1012F0005B08591E4FF440333B623B6A93FAA3F3F9
:10130000FB61FB69B3FA83F301FA03F31A437B68C9
:10131000D96A4FF07063BB61BB6993FAA3F37B6139
:101320007B69B3FA83F301FA03F31A437B68196B01
:101330004FF0E0433B613B6993FAA3F3FB60FB682A
:10134000B3FA83F301FA03F3134343601D4A1D4BC1
:101350001B6843F080731360FFF754FAF86308E0EA
:10136000FFF750FA0246FB6BD31A022B01D9032375
:1013700023E0144B1B6803F00073002BF0D01BE03C
:10138000104A104B1B6823F080731360FFF73AFA82
:10139000F86308E0FFF736FA0246FB6BD31A022B1C
:1013A00001D9032309E0074B1B6803F00073002BEE
:1013B000F0D101E0012300E0002318464037BD468C
:1013C00080BD00BF003802400070004080B586B08C
:1013D00000AF7860396000237B61784B1B6803F0B5
:1013E0000F023B689A4210D27449744B1B6823F079
:1013F0000F023B6813430B60704B1B6803F00F0236
:101400003B689A4201D00123D3E07B681B6803F05C
:101410000203002B08D06A49694B9B6823F0F00255
:101420007B689B6813438B607B681B6803F0010338
:10143000002B6BD07B685B68012B07D1604B1B686E
:1014400003F40033002B15D10123B2E07B685B6805
:10145000022B07D15A4B1B6803F00073002B09D1F4
:101460000123A6E0564B1B6803F00203002B01D1B9
:1014700001239EE05249524B9B6823F003027B6894
:101480005B6813438B60FFF7BDF978617B685B682D
:10149000012B12D10AE0FFF7B5F902467B69D31A96
:1014A00041F28832934201D9032382E0444B9B6886
:1014B00003F00C03042BEED128E07B685B68022B61
:1014C00012D10AE0FFF79EF902467B69D31A41F276
:1014D0008832934201D903236BE0394B9B6803F0B8
:1014E0000C03082BEED111E00AE0FFF78BF902465E
:1014F0007B69D31A41F28832934201D9032358E021
:101500002F4B9B6803F00C03002BEED12B4B1B6879
:1015100003F00F023B689A4210D92849274B1B68F9
:1015200023F00F023B6813430B60244B1B6803F04E
:101530000F023B689A4201D001233AE07B681B68A6
:1015400003F00403002B08D01D491D4B9B6823F4B6
:10155000E0527B68DB6813438B607B681B6803F099
:101560000803002B09D01649154B9B6823F46042F1
:101570007B681B69DB0013438B6000F027F8014692
:101580000F4B9B6803F0F002F0233B613B6993FA39
:10159000A3F3FB60FB68B3FA83F322FA03F3094A6F
:1015A000D35C21FA03F3084A136000200FF04CF8D3
:1015B000002318461837BD4680BD00BF003C0240DE
:1015C00000380240642A010858BB002080B48BB068
:1015D00000AF0023FB6100237B620023BB6100237B
:1015E0003B62364B9B6803F00C03042B06D0082BA0
:1015F00007D0002B58D1324B3B6258E0314B3B6255
:1016000055E02E4B5B6803F03F03FB612B4B5B689F
:1016100003F48003002B17D02A4AFB69B2FBF3F2D4
:10162000264B596847F6C0730B4047F6C071796185
:10163000796991FAA1F139613969B1FA81F1CB4047
:1016400003FB02F37B6216E01D4AFB69B2FBF3F277
:101650001A4B596847F6C0730B4047F6C071F960E2
:10166000F96891FAA1F1B960B968B1FA81F1CB409A
:1016700003FB02F37B62114B5B6803F440324FF4CF
:1016800040337B607B6893FAA3F33B603B68B3FA1B
:1016900083F322FA03F301335B00BB617A6ABB690F
:1016A000B2FBF3F33B6202E0054B3B6200BF3B6AD7
:1016B00018462C37BD465DF8047B70470038024061
:1016C0000024F40040787D0180B400AF034B1B6818
:1016D0001846BD465DF8047B704700BF58BB00202C
:1016E00080B582B000AFFFF7EFFF01460B4B9B6860
:1016F00003F4E0524FF4E0537B607B6893FAA3F36A
:101700003B603B68B3FA83F322FA03F3044AD35CE9
:1017100021FA03F318460837BD4680BD0038024061
:10172000742A010880B483B000AF786039607B68A8
:101730000F221A60114B9B6803F003027B685A600A
:101740000E4B9B6803F0F0027B689A600B4B9B6822
:1017500003F4E0527B68DA60084B9B6803F4604353
:10176000DA087B681A61064B1B6803F00F023B68BE
:101770001A600C37BD465DF8047B704700380240A4
:10178000003C024090B5D9B000AF3B1D186000236B
:10179000C7F854310023C7F850310023C7F84C3143
:1017A0000023C7F85C310023C7F858313B1D1B6884
:1017B0001B6803F00103002B15D07C4A7B4B9B6810
:1017C00023F4000393607949784B9A683B1D1B68AA
:1017D0005B6B13438B603B1D1B685B6B002B02D163
:1017E0000123C7F85C313B1D1B681B6803F4002311
:1017F000002B1CD06D496D4BD3F88C3023F4401274
:101800003B1D1B68DB6B1343C1F88C303B1D1B6811
:10181000DB6BB3F5801F02D10123C7F85C313B1DA0
:101820001B68DB6B002B02D10123C7F858313B1D2D
:101830001B681B6803F48013002B1CD05B495B4BB7
:10184000D3F88C3023F440023B1D1B681B6C134300
:10185000C1F88C303B1D1B681B6CB3F5800F02D1A7
:101860000123C7F85C313B1D1B681B6C002B02D1A8
:101870000123C7F858313B1D1B681B6803F08073B8
:10188000002B02D00123C7F85C313B1D1B681B688D
:1018900003F02003002B00F09F80444A434B1B6C55
:1018A00043F080531364414B1B6C03F0805207F1EB
:1018B00008031A6007F108031B683D4A3C4B1B688C
:1018C00043F480731360FEF79DFFC7F854010AE0EC
:1018D000FEF798FF0246D7F85431D31A642B02D989
:1018E000032300F08ABE324B1B6803F48073002B85
:1018F000EED02E4B1B6F03F44073C7F85031D7F86E
:101900005031002B3CD03B1D1B681B6B03F4407215
:10191000D7F850319A4233D0244B1B6F23F44073D5
:10192000C7F85031214A214B1B6F43F480331367B2
:101930001E4A1E4B1B6F23F4803313671B4AD7F8D4
:1019400050311367194B1B6F03F00103002B17D0A5
:10195000FEF758FFC7F854010CE0FEF753FF0246AC
:10196000D7F85431D31A41F28832934202D9032373
:1019700000F043BE0D4B1B6F03F00203002BECD0B5
:101980003B1D1B681B6B03F44073B3F5407F13D101
:101990000648064B9B6823F4F8123B1D1B68196B25
:1019A000044B0B40134383600CE000BF003802403F
:1019B00000700040FFFCFF0FB64AB64B9B6823F453
:1019C000F8139360B349B34B1A6F3B1D1B681B6B35
:1019D000C3F30B0313430B673B1D1B681B6803F02A
:1019E0001003002B11D0AB4AAA4BD3F88C3023F054
:1019F0008073C2F88C30A749A64BD3F88C203B1DCE
:101A00001B689B6B1343C1F88C303B1D1B681B6824
:101A100003F48043002B0BD09E499E4BD3F89030AB
:101A200023F440323B1D1B685B6E1343C1F89030BA
:101A30003B1D1B681B6803F40043002B0BD095492A
:101A4000944BD3F8903023F440223B1D1B689B6ECF
:101A50001343C1F890303B1D1B681B6803F48033AF
:101A6000002B0BD08B498B4BD3F8903023F44012D2
:101A70003B1D1B68DB6E1343C1F890303B1D1B6898
:101A80001B6803F40033002B0BD08249814BD3F841
:101A9000903023F440023B1D1B681B6F1343C1F8B9
:101AA00090303B1D1B681B6803F04003002B0BD0DC
:101AB0007849784BD3F8903023F003023B1D1B6824
:101AC0005B6C1343C1F890303B1D1B681B6803F02F
:101AD0008003002B0BD06F496E4BD3F8903023F06E
:101AE0000C023B1D1B689B6C1343C1F890303B1DDF
:101AF0001B681B6803F48073002B0BD06549654B92
:101B0000D3F8903023F030023B1D1B68DB6C13438D
:101B1000C1F890303B1D1B681B6803F40073002B59
:101B20000BD05C495B4BD3F8903023F0C0023B1DD7
:101B30001B681B6D1343C1F890303B1D1B681B686D
:101B400003F48063002B0BD05249524BD3F89030F2
:101B500023F440723B1D1B685B6D1343C1F890304A
:101B60003B1D1B681B6803F40063002B0BD0494925
:101B7000484BD3F8903023F440623B1D1B689B6DAB
:101B80001343C1F890303B1D1B681B6803F480535E
:101B9000002B0BD03F493F4BD3F8903023F44052F9
:101BA0003B1D1B68DB6D1343C1F890303B1D1B6868
:101BB0001B6803F40053002B0BD03649354BD3F888
:101BC000903023F440423B1D1B681B6E1343C1F849
:101BD00090303B1D1B681B6803F48003002B0BD067
:101BE0002C492C4BD3F8903023F080623B1D1B68AE
:101BF0009B6F1343C1F890303B1D1B681B6803F4B7
:101C00000013002B14D02349224BD3F8903023F03B
:101C100000623B1D1B68DB6F1343C1F890303B1D16
:101C20001B68DB6FB3F1006F02D10123C7F8583195
:101C30003B1D1B681B6803F00803002B02D0012327
:101C4000C7F858313B1D1B681B6803F48023002B29
:101C50000BD010490F4BD3F8903023F040723B1D4E
:101C60001B685B6F1343C1F890303B1D1B681B68FA
:101C700003F40003002B0FD00649064BD3F8903035
:101C800023F080523B1D1B68D3F880301343C1F80A
:101C9000903001E0003802403B1D1B681B6803F0D8
:101CA0008063002B0CD02B492A4BD3F8903023F0C3
:101CB00000523B1D1B68D3F884301343C1F89030A9
:101CC0003B1D1B681B6803F00063002B0CD02149EF
:101CD000204BD3F88C3023F000723B1D1B68D3F8E7
:101CE00088301343C1F88C303B1D1B681B6803F020
:101CF0008053002B0CD01749164BD3F88C3023F0AF
:101D000080623B1D1B68D3F88C301343C1F88C30C4
:101D1000D7F85C31012B06D03B1D1B681B68B3F163
:101D2000007F40F049820B4A0A4B1B6823F0806316
:101D30001360FEF767FDC7F854010DE0FEF762FD82
:101D40000246D7F85431D31A642B05D9032300F087
:101D500054BC00BF00380240E34B1B6803F0006333
:101D6000002BEBD13B1D1B681B6803F00103002B0C
:101D700000F082803B1D1B685B6B002B7CD1DA4B33
:101D8000D3F8843003F440324FF44033C7F848317D
:101D9000D7F8483193FAA3F3C7F84431D7F8443160
:101DA000B3FA83F322FA03F3C7F85031CE4BD3F8DA
:101DB000843003F070624FF07063C7F84031D7F899
:101DC000403193FAA3F3C7F83C31D7F83C31B3FA6A
:101DD00083F322FA03F3C7F84C31C3483B1D1B6859
:101DE0005A6847F6C073C7F83831D7F8383193FAD4
:101DF000A3F3C7F83431D7F83431B3FA83F39A40F8
:101E00004FF44033C7F83031D7F8303193FAA3F3A9
:101E1000C7F82C31D7F82C31B3FA83F3D7F8501127
:101E200001FA03F31A434FF07063C7F82831D7F86B
:101E3000283193FAA3F3C7F82431D7F82431B3FA41
:101E400083F3D7F84C1101FA03F31A433B1D1B68C7
:101E500099684FF0E043C7F82031D7F8203193FA62
:101E6000A3F3C7F81C31D7F81C31B3FA83F301FA96
:101E700003F31343C0F884303B1D1B681B6803F455
:101E80000023002B05D03B1D1B68DB6BB3F5801FC7
:101E90000ED03B1D1B681B6803F48013002B00F061
:101EA00091803B1D1B681B6CB3F5800F40F08A804E
:101EB0008D4BD3F8843003F440324FF44033C7F8ED
:101EC0001831D7F8183193FAA3F3C7F81431D7F8BB
:101ED0001431B3FA83F322FA03F3C7F85031824B7B
:101EE000D3F8843003F0E0424FF0E043C7F81031FC
:101EF000D7F8103193FAA3F3C7F80C31D7F80C31A7
:101F0000B3FA83F322FA03F3C7F84C3176483B1D4A
:101F10001B685A6847F6C073C7F80831D7F808310C
:101F200093FAA3F3C7F80431D7F80431B3FA83F373
:101F30009A404FF44033C7F80031D7F8003193FA94
:101F4000A3F3C7F8FC30D7F8FC30B3FA83F3D7F823
:101F5000501101FA03F31A433B1D1B68D9684FF077
:101F60007063C7F8F830D7F8F83093FAA3F3C7F8DE
:101F7000F430D7F8F430B3FA83F301FA03F31A43D9
:101F80004FF0E043C7F8F030D7F8F03093FAA3F3FE
:101F9000C7F8EC30D7F8EC30B3FA83F3D7F84C112C
:101FA00001FA03F31343C0F884304F494E4BD3F882
:101FB0008C3023F01F023B1D1B685B6A013B1343FF
:101FC000C1F88C303B1D1B681B6803F08073002B2D
:101FD0007CD0454BD3F8843003F070624FF07063CF
:101FE000C7F8E830D7F8E83093FAA3F3C7F8E4303D
:101FF000D7F8E430B3FA83F322FA03F3C7F8503189
:10200000394BD3F8843003F0E0424FF0E043C7F897
:10201000E030D7F8E03093FAA3F3C7F8DC30D7F814
:10202000DC30B3FA83F322FA03F3C7F84C312E48BD
:102030003B1D1B685A6847F6C073C7F8D830D7F8FD
:10204000D83093FAA3F3C7F8D430D7F8D430B3FA22
:1020500083F39A403B1D1B6819694FF44033C7F85E
:10206000D030D7F8D03093FAA3F3C7F8CC30D7F8F4
:10207000CC30B3FA83F301FA03F31A434FF07063E1
:10208000C7F8C830D7F8C83093FAA3F3C7F8C430FC
:10209000D7F8C430B3FA83F3D7F8501101FA03F339
:1020A0001A434FF0E043C7F8C030D7F8C03093FA76
:1020B000A3F3C7F8BC30D7F8BC30B3FA83F3D7F832
:1020C0004C1101FA03F31343C0F884303B1D1B6825
:1020D0001B6803F00073002B53D003483B1D1B68A3
:1020E0005A6847F6C07301E000380240C7F8B830BC
:1020F000D7F8B83093FAA3F3C7F8B430D7F8B430B0
:10210000B3FA83F39A403B1D1B6819694FF44033BF
:10211000C7F8B030D7F8B03093FAA3F3C7F8AC30B3
:10212000D7F8AC30B3FA83F301FA03F31A433B1D3B
:102130001B68D9684FF07063C7F8A830D7F8A8308B
:1021400093FAA3F3C7F8A430D7F8A430B3FA83F313
:1021500001FA03F31A433B1D1B6899684FF0E043F3
:10216000C7F8A030D7F8A03093FAA3F3C7F89C3093
:10217000D7F89C30B3FA83F301FA03F31343C0F8A2
:1021800084301A4A194B1B6843F080631360FEF7D2
:1021900039FBC7F8540109E0FEF734FB0246D7F8D3
:1021A0005431D31A642B01D9032326E20F4B1B6849
:1021B00003F00063002BEFD0D7F85831012B40F02B
:1021C0001B820A4A094B1B6823F080531360FEF7F9
:1021D00019FBC7F854010BE0FEF714FB0246D7F8D1
:1021E0005431D31A642B03D9032306E2003802408A
:1021F000D04B1B6803F00053002BEDD13B1D1B6837
:102200001B6803F40023002B04D03B1D1B68DB6B11
:10221000002B0DD03B1D1B681B6803F48013002BA3
:1022200000F087803B1D1B681B6C002B40F08180F9
:10223000C04BD3F8883003F440324FF44033C7F832
:102240009830D7F8983093FAA3F3C7F89430D7F8BA
:102250009430B3FA83F322FA03F3C7F85031B54B45
:10226000D3F8883003F0E0424FF0E043C7F89030F5
:10227000D7F8903093FAA3F3C7F88C30D7F88C30A6
:10228000B3FA83F322FA03F3C7F84C31A9483B1D94
:102290001B685A6947F6C073C7F88830D7F888308A
:1022A00093FAA3F3C7F88430D7F88430B3FA83F3F2
:1022B0009A404FF44033C7F88030D7F8803093FA13
:1022C000A3F3FB67FB6FB3FA83F3D7F8501101FA5E
:1022D00003F31A433B1D1B6899694FF07063BB679A
:1022E000BB6F93FAA3F37B677B6FB3FA83F301FAB7
:1022F00003F31A434FF0E0433B673B6F93FAA3F3BA
:10230000FB66FB6EB3FA83F3D7F84C1101FA03F3C3
:102310001343C0F888308749864BD3F88C3023F4B8
:10232000F8523B1D1B689B6A013B1B021343C1F81B
:102330008C303B1D1B681B6803F40013002B00F05E
:1023400094803B1D1B68DB6FB3F1006F40F08D8004
:10235000784BD3F8883003F070624FF07063BB663F
:10236000BB6E93FAA3F37B667B6EB3FA83F322FA18
:1023700003F3C7F850316F4BD3F8883003F0E042D5
:1023800007F160034FF0E041196007F160031B683B
:1023900093FAA3F107F15C03196007F15C031B6872
:1023A000B3FA83F322FA03F3C7F84C31614C3B1DB7
:1023B0001B685A6907F1580347F6C071196007F1A5
:1023C00058031B6893FAA3F107F15403196007F14E
:1023D00054031B68B3FA83F39A403B1D1B68196AC8
:1023E00007F150034FF44030186007F150031B68A9
:1023F00093FAA3F007F14C03186007F14C031B6834
:10240000B3FA83F301FA03F31A4307F148034FF0D9
:102410007061196007F148031B6893FAA3F107F193
:102420004403196007F144031B68B3FA83F3D7F838
:10243000501101FA03F31A4307F140034FF0E04152
:10244000196007F140031B6893FAA3F107F13C03FD
:10245000196007F13C031B68B3FA83F3D7F84C11FA
:1024600001FA03F31343C4F888303B1D1B681B6853
:1024700003F00803002B00F0A4802E4BD3F8883023
:1024800003F0706207F138034FF07061196007F1D3
:1024900038031B6893FAA3F107F13403196007F1BD
:1024A00034031B68B3FA83F322FA03F3C7F85031FD
:1024B000204BD3F8883003F4403207F130034FF457
:1024C0004031196007F130031B6893FAA3F107F15B
:1024D0002C03196007F12C031B68B3FA83F322FA6B
:1024E00003F3C7F84C31134C3B1D1B685A6907F1C5
:1024F000280347F6C071196007F128031B6893FA97
:10250000A3F107F12403196007F124031B68B3FA50
:1025100083F39A4007F120034FF44031196007F12B
:1025200020031B6893FAA3F107F11C03196007F15C
:102530001C0301E0003802401B68B3FA83F3D7F8AC
:102540004C1101FA03F31A4307F118034FF07061BD
:10255000196007F118031B6893FAA3F107F114033C
:10256000196007F114031B68B3FA83F3D7F850110D
:1025700001FA03F31A433B1D1B68D96907F11003E5
:102580004FF0E040186007F110031B6893FAA3F0C6
:1025900007F10C03186007F10C031B68B3FA83F30F
:1025A00001FA03F31343C4F888301649154BD3F8E6
:1025B0008C3023F440323B1D1B68DB6A1343C1F8A7
:1025C0008C30104A0F4B1B6843F080531360FEF7AA
:1025D00019F9C7F8540109E0FEF714F90246D7F8D3
:1025E0005431D31A642B01D9032306E0054B1B6831
:1025F00003F00053002BEFD00023184607F5B27705
:10260000BD4690BD0038024080B582B000AF786012
:1026100039607B68002B01D1012326E07B6893F8A9
:102620002C30DBB2002B06D17B68002283F82D20F2
:10263000786800F01FF87B68022283F82C207B6802
:102640001A687B6804331046194600F06DFA7B68FF
:102650001A687B685B68104639681A4600F0D6FA3B
:102660007B68012283F82C20002318460837BD46DA
:1026700080BD00BF80B483B000AF78600C37BD462A
:102680005DF8047B704700BF80B582B000AF786012
:102690007B68002B01D1012319E07B6893F8393066
:1026A000DBB2002B02D1786800F016F87B680222BA
:1026B00083F839207B681A687B6804331046194612
:1026C00000F076F97B68012283F839200023184650
:1026D0000837BD4680BD00BF80B483B000AF7860CE
:1026E0000C37BD465DF8047B704700BF80B483B0F3
:1026F00000AF78607B681B687A681268D26842F025
:102700000102DA607B681B687A681268126842F01E
:1027100001021A60002318460C37BD465DF8047BA1
:10272000704700BF80B582B000AF78607B681B68DF
:102730001B6903F00203002B22D07B681B68DB6857
:1027400003F00203002B1BD07B681B686FF00202B2
:102750001A617B6801221A767B681B689B6903F00B
:102760000303002B03D0786800F004F905E07868D3
:1027700000F0F6F8786800F007F97B6800221A7616
:102780007B681B681B6903F00403002B22D07B6865
:102790001B68DB6803F00403002B1BD07B681B68FD
:1027A0006FF004021A617B6802221A767B681B684C
:1027B0009B6903F44073002B03D0786800F0DAF8CB
:1027C00005E0786800F0CCF8786800F0DDF87B6808
:1027D00000221A767B681B681B6903F00803002B34
:1027E00022D07B681B68DB6803F00803002B1BD03A
:1027F0007B681B686FF008021A617B6804221A76F6
:102800007B681B68DB6903F00303002B03D0786847
:1028100000F0B0F805E0786800F0A2F8786800F001
:10282000B3F87B6800221A767B681B681B6903F08B
:102830001003002B22D07B681B68DB6803F01003B9
:10284000002B1BD07B681B686FF010021A617B683D
:1028500008221A767B681B68DB6903F44073002B3F
:1028600003D0786800F086F805E0786800F078F822
:10287000786800F089F87B6800221A767B681B680C
:102880001B6903F00103002B0ED07B681B68DB681B
:1028900003F00103002B07D07B681B686FF0010277
:1028A0001A6178680DF0E4FB7B681B681B6903F014
:1028B0008003002B0ED07B681B68DB6803F080036D
:1028C000002B07D07B681B686FF080021A61786864
:1028D00000F020F97B681B681B6903F48073002BF0
:1028E0000ED07B681B68DB6803F08003002B07D0E9
:1028F0007B681B686FF080021A61786800F00AF943
:102900007B681B681B6903F04003002B0ED07B68BB
:102910001B68DB6803F04003002B07D07B681B6853
:102920006FF040021A61786800F038F87B681B6825
:102930001B6903F02003002B0ED07B681B68DB684B
:1029400003F02003002B07D07B681B686FF0200288
:102950001A61786800F0D4F80837BD4680BD00BF22
:1029600080B483B000AF78600C37BD465DF8047B5F
:10297000704700BF80B483B000AF78600C37BD46AD
:102980005DF8047B704700BF80B483B000AF78600F
:102990000C37BD465DF8047B704700BF80B483B040
:1029A00000AF78600C37BD465DF8047B704700BF10
:1029B00080B485B000AF786039600023FB607B682D
:1029C0001B68FB607B68434A934213D07B68B3F17A
:1029D000804F0FD07B68404A93420BD07B683F4AC0
:1029E000934207D07B683E4A934203D07B683D4ABE
:1029F000934201D1012300E00023002B08D0FB68A3
:102A000023F07003FB603B685B68FA681343FB606C
:102A10007B68304A93422BD07B68B3F1804F27D03C
:102A20007B682D4A934223D07B682C4A93421FD067
:102A30007B682B4A93421BD07B682A4A934217D06B
:102A40007B68294A934213D07B68284A93420FD06F
:102A50007B68274A93420BD07B68264A934207D073
:102A60007B68254A934203D07B68244A934201D174
:102A7000012300E00023002B08D0FB6823F44073FF
:102A8000FB603B68DB68FA681343FB607B68FA68AD
:102A90001A603B689A687B68DA623B681A687B68F0
:102AA0009A627B680B4A934203D07B680D4A93423B
:102AB00001D1012300E00023002B03D03B681A69F9
:102AC0007B681A637B6801225A611437BD465DF842
:102AD000047B7047000001400004004000080040F3
:102AE000000C00400004014000400140004401404F
:102AF0000048014000180040001C00400020004039
:102B000080B483B000AF78600C37BD465DF8047BBD
:102B1000704700BF80B483B000AF78600C37BD460B
:102B20005DF8047B704700BF80B485B000AF78606B
:102B300039600023FB600023BB603B681B68012BEE
:102B400027D07B681B68FB60FA682F4B1340FB6043
:102B50003B685A683B689B681A433B68DB681A43CA
:102B60003B681B691A433B685B691A433B689B6976
:102B70001A433B68DB691A433B681B6A1A433B688C
:102B80005B6A1343FA681343FB607B68FA681A6058
:102B900032E07B681B68FB60FB6823F4F843FB6052
:102BA0003B68DA693B681B6A1A433B685B6A1343FC
:102BB000FA681343FB607B685B68BB60BA68124BC2
:102BC0001340BB603B685A683B689B681A433B688C
:102BD000DB681A433B681B691A433B685B691A430D
:102BE0003B689B691343BA681343BB607B68FA6810
:102BF0001A607B68BA685A60002318461437BD46CD
:102C00005DF8047B704700BF0080FFFF80B487B091
:102C100000AFF860B9607A6000237B6100233B61FC
:102C20007B68012B2ED0FB689B687B617B6903F07E
:102C300070437B61BB681B685A1EBB685B68013BC5
:102C40001B011A43BB689B68013B1B021A43BB680C
:102C5000DB68013B1B031A43BB681B69013B1B0478
:102C60001A43BB685B69013B1B051A43BB689B6940
:102C7000013B1B0613437A6913437B61FB687A6946
:102C80009A6039E0FB689B687B617A691E4B134050
:102C90007B61BB68DB68013B1A03BB685B69013B76
:102CA0001B0513437A6913437B61FB68DB683B6157
:102CB0003B6903F070433B61BB681B685A1EBB68ED
:102CC0005B68013B1B011A43BB689B68013B1B020D
:102CD0001A43BB681B69013B1B041A43BB689B6911
:102CE000013B1B0613433A6913433B61FB687A6956
:102CF0009A60FB683A69DA60002318461C37BD46C3
:102D00005DF8047B704700BFFF0F0FFF80B582B0F6
:102D100000AF78607B68002B01D101236BE07B68FA
:102D20005B7FDBB2002B05D17B6800221A777868C5
:102D30000DF048FC7B6802225A777B681B68CA2228
:102D40005A627B681B6853225A62786800F05AF80E
:102D50000346002B08D07B681B68FF225A627B6801
:102D600004225A77012346E07B681A687B681B6857
:102D70009968234B0B4093607B681B687A681268E4
:102D800091687A6850687A68126910437A68526963
:102D900002430A439A607B681B687A68D2681A61AA
:102DA0007B681B687A68126811697A6892681204F5
:102DB0000A431A617B681B687A681268D26822F03D
:102DC0008002DA607B681B687A681268D26C22F035
:102DD0000802DA647B681B687A681268D16C7A68CA
:102DE00092690A43DA647B681B68FF225A627B6837
:102DF00001225A77002318460837BD4680BD00BF20
:102E0000BFFF8FFF80B584B000AF78600023FB6008
:102E10007B681B68DB6803F04003002B19D17B68DB
:102E20001B684FF0FF32DA60FDF7ECFCF86009E058
:102E3000FDF7E8FC0246FB68D31AB3F57A7F01D9A7
:102E4000032307E07B681B68DB6803F04003002B6B
:102E5000EED0002318461037BD4680BD80B582B045
:102E600000AF78607B68002B01D1012325E07B68EF
:102E70001B7A012B01D102231FE07B6801221A7209
:102E80007B685B7ADBB2002B05D17B6800221A726B
:102E900078680DF0AFFB7B6802225A727B681B6872
:102EA0007A681268126842F004021A607B68012294
:102EB0005A727B6800221A72002318460837BD46F2
:102EC00080BD00BF80B584B000AF7860396000235A
:102ED000BB600023FB737B681B7A012B01D10223AB
:102EE00037E07B6801221A727B685B7ADBB2012BC8
:102EF00029D17B6802225A72FDF784FCB8600EE08B
:102F0000FDF780FC0246BB68D31A022B07D97B6809
:102F100004225A727B6800221A72032319E07B682C
:102F20001B685B6803F00103002BE9D07B681B681A
:102F30009A687B685A607B685A683B681A607B684D
:102F400001225A7201E00123FB737B6800221A728E
:102F5000FB7B18461037BD4680BD00BF80B586B0EC
:102F600000AF786000237B61494B3B610023FB602D
:102F70007B68002B01D1012385E07B6893F8443006
:102F8000DBB2002B02D178680CF006FB414A414BC2
:102F90005B6C43F4804353643E4B5B6C03F48043AF
:102FA000BB60BB683C4A3C4B5B6823F40003536046
:102FB0003949394B5A687B681B6A13434B607B68FD
:102FC0001B687A68126802F58052126842F00102AA
:102FD00003F580531A6000BF7B681B6803F58053BC
:102FE0001B6803F00103002BF6D17B681B681B698B
:102FF0007B617B6923F01C037B61FEF765FB386115
:103000003B69264A934208D93B69254A934204D832
:103010007B6943F008037B6126E03B69204A9342C9
:1030200008D93B691F4A934204D87B6943F00C03DB
:103030007B6119E03B691B4A934204D93B691A4AF8
:10304000934200D810E03B69174A934208D93B6984
:10305000164A934204D87B6943F004037B6103E082
:103060007B6943F010037B617B681B687A691A6196
:1030700003F0BAFF7868F96800F0D2FA7B680122A1
:1030800083F84420002318461837BD4680BD00BF92
:10309000008793030038024000380140FF2C3101C3
:1030A000BF0E1602FF869303FFE0F5057FD1F008FF
:1030B00080B584B000AF78607B681A6841F2140371
:1030C00013441A68124B1340FB607B681A6841F284
:1030D00014031344FA681A60FB6803F0C003002B62
:1030E00002D0786803F0FCFBFB6803F00103002BBF
:1030F00002D0786803F026FCFB6803F40043002B41
:1031000002D0786800F006F81037BD4680BD00BFD9
:10311000FBE7013880B483B000AF78600C37BD4660
:103120005DF8047B704700BF80B588B000AFF860E1
:103130000B467A607B810023BB6100237B61FB68C7
:1031400093F84430DBB2822B02D10223FB7758E0A4
:10315000FB6893F84530012B01D102235AE0FB684C
:10316000012283F84520FB68822283F84420FB6813
:103170001B681B69BB61BB6903F01C03BB61FB6877
:103180001B8ADB029BB2BA691343BB617B899B013B
:1031900003F4F863BA691343BB61BB6923F002030C
:1031A000BB61BB6943F00103BB61FB681B68BA6983
:1031B0001A61FDF727FB7861FB681B681B69BB611F
:1031C000BB6903F00103002B07D1FB681B685A6938
:1031D0007B681A600023FB770BE0FDF713FB0246C8
:1031E0007B69D31AB3F5803F02D30323FB7700E05A
:1031F000E2E7FB68012283F84420FB68002283F8A1
:103200004520FB7F002B04D0FB7F044819460BF0C0
:103210006BFEFB7F18462037BD4680BD4824010861
:1032200080B588B000AFF8600B467A607B810023E0
:10323000BB6100237B61FB6893F84430DBB2422B17
:1032400002D10223FB7758E0FB6893F84530012B4D
:1032500001D102235AE0FB68012283F84520FB6874
:10326000422283F84420FB681B681B69BB61BB6971
:1032700003F01C03BB61FB681B8ADB029BB2BA69CB
:103280001343BB617B899B0103F4F863BA69134361
:10329000BB61BB6943F00203BB61BB6943F001033F
:1032A000BB61FB681B687A6892B25A61FB681B6855
:1032B000BA691A61FDF7A6FA7861FB681B681B6999
:1032C000BB61BB6903F00103002B02D10023FB7734
:1032D0000BE0FDF797FA02467B69D31AB3F5803FFE
:1032E00002D30323FB7700E0E7E7FB68012283F8C2
:1032F0004420FB68002283F84520FB7F002B04D08C
:10330000FB7F044819460BF0EFFDFB7F1846203782
:10331000BD4680BD5824010880B582B000AF7860FA
:103320007B6893F84530012B01D102231FE07B68B5
:10333000012283F845207B68022283F844207868C4
:1033400000F03EFB786800F05FFB786800F0D8FB87
:10335000786800F07DFB786800F0A6FB7B680122AE
:1033600083F844207B68002283F845200023184618
:103370000837BD4680BD00BF80B582B000AF786021
:103380007B6893F84530012B01D102231FE07B6855
:10339000012283F845207B68022283F84420786864
:1033A00000F06CFB786800F095FB786800F03EFB5D
:1033B000786800F0A5FB786800F014FB7B680122B8
:1033C00083F844207B68002283F8452000231846B8
:1033D0000837BD4680BD00BF80B582B000AF7860C1
:1033E00039607B681B683A689A617B681B689B69D7
:1033F0000120FDF713FA7B681B683A689A61083769
:10340000BD4680BD80B582B000AF786039607B6812
:103410001A6841F2180313443A681A607B681A6804
:1034200041F2180313441B680120FDF7F7F97B688C
:103430001A6841F2180313443A681A600837BD4607
:1034400080BD00BF80B582B000AF786039607B6816
:103450001B683A681A607B681B681B680120FDF7CF
:10346000DDF97B681B683A681A600837BD4680BD85
:1034700080B584B000AF786039600023FB607B6862
:1034800093F84530012B01D10223C2E07B68012271
:1034900083F845207B68022283F844203B68002B98
:1034A00000F09A807B681B681B68FB60FA685B4BC6
:1034B0001340FB603B681A683B685B681A433B68D3
:1034C0009B681A433B68DB681A437B689B681A4316
:1034D0003B681B691A433B685B691A437B68DB687E
:1034E0001A433B689B691A433B68DB691A433B6894
:1034F0001B6A1A433B685B6A1A433B689B6A134327
:10350000FA681343FB607868F968FFF79BFF7B68F4
:103510001B683A68D16A3A68126B11433A68526B79
:1035200011433A68926B11433A68D26B11433A687F
:10353000126C11433A68526C11433A68926C0A4318
:103540005A607B681B685B68FB600120FDF766F9C9
:103550007B681B68FA685A607B681B683A68D26CA3
:103560009A607B681B683A68126DDA607B681B683A
:103570009B69FB60FA684FF641731340FB603B6840
:103580005B6D1A043B689B6D1A433B68DB6D1A4305
:103590003B681B6E1A433B685B6E1A433B689B6E2D
:1035A0001343FA681343FB607868F968FFF714FF68
:1035B0007B681B683A68D16E3A68126F0A43DA6119
:1035C0007B681B68DB69FB600120FDF727F97B68DE
:1035D0001B68FA68DA6113E07B681B681B68FB6094
:1035E000FB6823F49043FB607B689A687B68DB6828
:1035F0001343FA681343FB607868F968FFF722FF0A
:103600007B68012283F844207B68002283F84520F0
:10361000002318461037BD4680BD00BF0F8120FF34
:1036200080B5B0B000AF786039600023C7F8BC3017
:103630003B68002B07D07B684FF40062DA607B6840
:103640004FF480429A600023BB640023FB64002394
:103650003B6500237B650023BB650023FB657B681E
:10366000DB69002B03D14FF480633B6601E000234C
:103670003B664FF400737B660023BB660023FB664A
:1036800000233B6700237B670023BB674023FB6766
:103690000023C7F880300023C7F884300023C7F820
:1036A00088300023C7F88C300023C7F890300023FF
:1036B000C7F894300023C7F898300023C7F89C302F
:1036C0008023C7F8A0300023C7F8A4300023C7F830
:1036D000A8300023C7F8AC300023C7F8B03000236F
:1036E000C7F8B4300023C7F8B8307B681B681B6884
:1036F000C7F8BC30D7F8BC20924B1340C7F8BC3099
:10370000BA6CFB6C1A433B6D1A437B6D1A437B68A2
:103710009B681A43BB6D1A43FB6D1A437B68DB68D9
:103720001A433B6E1A437B6E1A43BB6E1A43FB6E01
:103730001A433B6F1343D7F8BC201343C7F8BC3080
:103740007868D7F8BC10FFF77DFE7B681B68796F3F
:10375000BA6F1143FA6F1143D7F880201143D7F89D
:1037600084201143D7F888201143D7F88C201143C7
:10377000D7F890200A435A607B681B685B68C7F8DB
:10378000BC300120FDF74AF87B681B68D7F8BC20E5
:103790005A607B681B68D7F894209A607B681B6826
:1037A000D7F89820DA607B681B689B69C7F8BC3043
:1037B000D7F8BC204FF641731340C7F8BC30D7F898
:1037C0009C301A04D7F8A0301A43D7F8A4301A4313
:1037D000D7F8A8301A43D7F8AC301A43D7F8B0302E
:1037E0001343D7F8BC201343C7F8BC307868D7F828
:1037F000BC10FFF7F1FD7B681B68D7F8B410D7F851
:10380000B8200A43DA617B681B68DB69C7F8BC3003
:103810000120FDF703F87B681B68D7F8BC20DA614C
:103820000023BB604FF00073FB6000233B614FF44B
:1038300000137B610023BB610023FB6100233B621B
:1038400000237B620423BB624FF00073FB624FF4E2
:1038500080333B634FF480037B634FF40053BB63BF
:103860008023FB6300233B6400237B647B681A682E
:1038700041F2180313441B68C7F8BC30D7F8BC20CA
:10388000314B1340C7F8BC30BA68FB681A433B6938
:103890001A437B691A43BB691A43FB691A433B6AA3
:1038A0001A437B6A1A43BB6A1343D7F8BC201343FD
:1038B000C7F8BC307868D7F8BC10FFF7A3FD7B6869
:1038C0001B68F96A3A6B11437A6B1143BA6B114367
:1038D000FA6B11433A6C920011437A6C0A4342F43A
:1038E000000203F580531A607B681B6803F5805360
:1038F0001B68C7F8BC300120FCF790FF7B681B6891
:1039000003F58053D7F8BC201A607B689B69012BB4
:103910000DD17B6819687B681A6841F21C03134457
:103920001B680A4A1A4341F21C030B441A607B6865
:103930005B69786800211A4600F00AF8C037BD4676
:1039400080BD00BF0F8120FF233FDEF84000010053
:1039500080B487B000AFF860B9607A607B680533E7
:103960001B781B027A6804321278134343F0004339
:103970007B61BA68104B13441A467B6913607B68FD
:1039800003331B781A067B6802331B781B041A4327
:103990007B6801331B781B0213437A681278134348
:1039A0007B61BA68054B13441A467B6913601C3768
:1039B000BD465DF8047B7047408002404480024071
:1039C00080B584B000AF78607B681B681B6843F0EB
:1039D0000803FB607868F968FFF734FD1037BD46CF
:1039E00080BD00BF80B584B000AF78607B681B6885
:1039F0001B6823F00803FB607868F968FFF722FD75
:103A00001037BD4680BD00BF80B584B000AF786080
:103A10007B681B681B6843F00403FB60FB687868E5
:103A20001946FFF70FFD1037BD4680BD80B584B045
:103A300000AF78607B681B681B6823F00403FB60A1
:103A4000FB6878681946FFF7FDFC1037BD4680BD5E
:103A500080B584B000AF78607B681A6841F21803C3
:103A600013441B6843F40053FB60FB6878681946F5
:103A7000FFF7C8FC1037BD4680BD00BF80B584B0DD
:103A800000AF78607B681A6841F2180313441B6822
:103A900023F40053FB60FB6878681946FFF7B2FC1B
:103AA0001037BD4680BD00BF80B584B000AF7860E0
:103AB0007B681A6841F2180313441B6843F0020341
:103AC000FB60FB6878681946FFF79CFC1037BD4621
:103AD00080BD00BF80B584B000AF78607B681A6895
:103AE00041F2180313441B6823F00203FB60FB68D8
:103AF00078681946FFF786FC1037BD4680BD00BFC9
:103B000080B584B000AF78607B681A6841F2180312
:103B100013441B6843F48013FB60FB687868194604
:103B2000FFF770FC1037BD4680BD00BF80B483B086
:103B300000AF78607B6803F108027B685A607B689D
:103B40004FF0FF329A607B6803F108027B68DA600D
:103B50007B6803F108027B681A617B6800221A60A7
:103B60000C37BD465DF8047B704700BF80B483B05E
:103B700000AF78607B6800221A610C37BD465DF8A3
:103B8000047B704780B485B000AF786039607B6893
:103B90005B68FB603B68FA685A60FB689A683B6840
:103BA0009A60FB689B683A685A60FB683A689A605A
:103BB0003B687A681A617B681B685A1C7B681A60CC
:103BC0001437BD465DF8047B704700BF80B485B0F4
:103BD00000AF786039603B681B68BB60BB68B3F1BD
:103BE000FF3F03D17B681B69FB600CE07B680833F7
:103BF000FB6002E0FB685B68FB60FB685B681A685F
:103C0000BB689A42F6D9FB685A683B685A603B68C1
:103C10005B683A689A603B68FA689A60FB683A6841
:103C20005A603B687A681A617B681B685A1C7B681B
:103C30001A601437BD465DF8047B704780B485B0C8
:103C400000AF78607B681B69FB607B685B687A68A3
:103C500092689A607B689B687A6852685A60FB68D1
:103C60005A687B689A4203D17B689A68FB685A60FD
:103C70007B6800221A61FB681B685A1EFB681A6089
:103C8000FB681B6818461437BD465DF8047B704717
:103C900080B485B000AFF860B9607A60FB68043B1F
:103CA000FB60FB684FF080721A60FB68043BFB60AE
:103CB000BB6823F00102FB681A60FB68043BFB60F1
:103CC000FB6800221A60FB68143BFB607A68FB68A3
:103CD0001A60FB68043BFB60FB686FF002021A602D
:103CE000FB68203BFB60FB6818461437BD465DF857
:103CF000047B704780B483B000AF0C4B1B68B3F1FA
:103D0000FF3F09D04FF0500383F31188BFF36F8F4B
:103D1000BFF34F8F7B60FEE74FF0500383F31188B2
:103D2000BFF36F8FBFF34F8F3B60FEE700BB0020F8
:103D3000074B19680868B0E8F04F80F30988BFF3B3
:103D40006F8F4FF0000080F311887047AFF3008051
:103D5000ACBB002006480068006880F3088862B6A3
:103D600061B6BFF34F8FBFF36F8F00DF00BF00005E
:103D700008ED00E080B586B000AF3B4B1B683B4AC6
:103D8000934209D14FF0500383F31188BFF36F8F33
:103D9000BFF34F8F3B61FEE7334B1B68344A9342BE
:103DA00009D14FF0500383F31188BFF36F8FBFF336
:103DB0004F8FFB60FEE72F4B7B617B691B78DBB28B
:103DC000BB607B69FF221A707B691B78DBB2FB71D9
:103DD000FB79DBB203F05003DAB2274B1A70274BA2
:103DE00007221A6009E0254B1B68013B234A136038
:103DF000FB79DBB25B00DBB2FB71FB79DBB2DBB2E0
:103E00005BB2002BEFDB1D4B1B681B021B4A1360D0
:103E10001A4B1B6803F4E063184A1360BB68DAB2FC
:103E20007B691A70164A164B1B6843F470031360C3
:103E3000134A134B1B6843F07043136000F0D8F82B
:103E4000104B00221A6000F0EDF80F4A0E4B1B6871
:103E500043F040431360FFF77DFFFFF74BFF002364
:103E600018461837BD4680BD00ED00E071C20F4115
:103E700070C20F4100E400E08CBB002090BB00202A
:103E800020ED00E000BB002034EF00E080B483B000
:103E900000AF4FF0500383F31188BFF36F8FBFF370
:103EA0004F8F7B600E4B1B6801330D4A13600C4B28
:103EB0001B68012B0ED10B4B1B68DBB2002B09D00A
:103EC0004FF0500383F31188BFF36F8FBFF34F8F11
:103ED0003B60FEE70C37BD465DF8047B704700BFD2
:103EE00000BB002004ED00E080B483B000AF104BB5
:103EF0001B68002B09D14FF0500383F31188BFF3E7
:103F00006F8FBFF34F8F7B60FEE7094B1B68013B50
:103F1000074A1360064B1B68002B04D100233B604B
:103F20003B6883F311880C37BD465DF8047B70470E
:103F300000BB0020000000000000000000000000A6
:103F4000EFF30980BFF36F8F154B1A681EF0100F47
:103F500008BF20ED108A20E9F04F10604DF8043DB5
:103F60004FF0500080F31188BFF34F8FBFF36F8F76
:103F700001F018FC4FF0000080F3118808BC1968AC
:103F80000868B0E8F04F1EF0100F08BFB0EC108AC0
:103F900080F30988BFF36F8F704700BFAFF30080D5
:103FA000ACBB002080B582B000AF4FF0500383F36C
:103FB0001188BFF36F8FBFF34F8F7B600DF0F8FC5C
:103FC00001F026FB0346002B06D00DF04DFD074BFC
:103FD0004FF080521A6001E00DF02AFD00233B6093
:103FE0003B6883F311880837BD4680BD04ED00E0CF
:103FF00080B400AF074A084B1B680849A1FB0313B4
:104000009B09013B1360064B07221A60BD465DF811
:10401000047B704714E000E058BB0020D34D6210D1
:1040200010E000E0DFF80C00016841F4700101606D
:104030007047000088ED00E080B485B000AFEFF37A
:104040000583FB60FB680F2B13D9154AFB681344EB
:104050001B78FB72134B1B78FA7A9A4209D24FF005
:10406000500383F31188BFF36F8FBFF34F8F7B60D3
:10407000FEE70D4B1B6803F4E0620C4B1B689A4291
:1040800009D94FF0500383F31188BFF36F8FBFF34B
:104090004F8F3B60FEE71437BD465DF8047B7047E9
:1040A000F0E300E08CBB00200CED00E090BB0020B2
:1040B00080B588B000AF786000237B61474B1B68F8
:1040C000002B09D14FF0500383F31188BFF36F8F9A
:1040D000BFF34F8FFB60FEE701F0A4F9404B1A6875
:1040E0007B681340002B6DD17B68002B0DD008221C
:1040F0007B6813447B607B6803F00703002B04D0CC
:104100007B6823F0070308337B607B68002B59D062
:10411000344B1B687A689A4254D8334BBB61324B9C
:104120001B68FB6104E0FB69BB61FB691B68FB6109
:10413000FB695A687B689A4203D2FB691B68002BB3
:10414000F1D1264B1B68FA699A423BD0BB691B68C8
:10415000082213447B61FB691A68BB691A60FB691A
:104160005A687B68D21A08235B009A420FD9FA6911
:104170007B6813443B61FB695A687B68D21A3B69D0
:104180005A60FB697A685A60386900F089F8154B03
:104190001A68FB695B68D31A124A1360114B1A68DC
:1041A000124B1B689A4203D20E4B1B680F4A1360D6
:1041B000FB695A680A4B1B681A43FB695A60FB6922
:1041C00000221A6001F03CF97B69002B01D10BF051
:1041D000F3F87B6918462037BD4680BD9CBB0020A4
:1041E000A8BB0020A0BB002094BB0020A4BB0020E3
:1041F00080B586B000AF78607B687B617B68002B00
:1042000046D008235B427A6913447B617B693B613A
:104210003B695A68204B1B681340002B09D14FF0B3
:10422000500383F31188BFF36F8FBFF34F8FFB6091
:10423000FEE73B691B68002B09D04FF0500383F366
:104240001188BFF36F8FBFF34F8FBB60FEE73B69F1
:104250005A68114B1B681340002B19D03B691B682F
:10426000002B15D13B695A680B4B1B68DB431A4086
:104270003B695A6001F0D6F83B695A68074B1B68E6
:104280001344064A1360386900F00AF801F0D8F8C0
:104290001837BD4680BD00BFA8BB0020A0BB0020D2
:1042A00080B485B000AF7860274BFB6002E0FB680C
:1042B0001B68FB60FB681A687B689A42F7D3FB684F
:1042C000BB60FB685B68BA681A447B689A4208D195
:1042D000FB685A687B685B681A44FB685A60FB6835
:1042E0007B607B68BB607B685B68BA681A44FB686C
:1042F0001B689A4218D1FB681A68144B1B689A42D3
:104300000DD07B685A68FB681B685B681A447B6841
:104310005A60FB681B681A687B681A6008E00B4BE0
:104320001A687B681A6003E0FB681A687B681A6089
:10433000FA687B689A4202D0FB687A681A60143780
:10434000BD465DF8047B704794BB00209CBB0020F9
:1043500080B48FB000AF786000233B6200233B63E2
:104360000023FB62584B1B68002B09D04FF0500311
:1043700083F31188BFF36F8FBFF34F8F7B61FEE72D
:10438000FB6ADB007A6813447B627BE07B6A5B68D4
:104390007B637B6A1B68BB62BB6A03F00703002B6D
:1043A0000ED0BB6A0733BB62BB6A23F00703BB6254
:1043B0007B6A1B681A46BB6AD31A7A6B13447B6309
:1043C000BB6AFB61FB6A002B06D1FB693F4A1360A5
:1043D0003E4B00225A601DE03B4B1B68002B09D16D
:1043E0004FF0500383F31188BFF36F8FBFF34F8FEC
:1043F0003B61FEE7344B1B681A46BB6A9A4209D3FD
:104400004FF0500383F31188BFF36F8FBFF34F8FCB
:10441000FB60FEE72C4B1B68BB61FA697B6B1344A6
:10442000BB620822BB6A9B1ABB62BB6A23F007030C
:10443000BB62BB6A244A1360234B1B6800225A608C
:10444000214B1B6800221A60FB693B623B6ABA6A17
:10445000D21A3B6A5A601C4B1A683B6A1A60BB69E5
:10446000002B02D0BB693A6A1A603B6A5B683A6B00
:1044700013443B63FB6A0133FB62FB6ADB007A682F
:1044800013447B627B6A5B68002B7FF47FAF104A2A
:104490003B6B13600F4A3B6B13603B6B002B09D1E6
:1044A0004FF0500383F31188BFF36F8FBFF34F8F2B
:1044B000BB60FEE7084B4FF000421A603C37BD4638
:1044C0005DF8047B704700BF9CBB002094BB0020BC
:1044D000A4BB0020A0BB0020A8BB002080B584B0F6
:1044E00000AF786039607B68FB60FB68002B09D106
:1044F0004FF0500383F31188BFF36F8FBFF34F8FDB
:10450000BB60FEE7FFF7C2FCFB681A68FB68DB6B69
:10451000F968096C01FB03F31A44FB685A60FB68F5
:1045200000229A63FB681A68FB689A60FB681A6845
:10453000FB68DB6B013BF968096C01FB03F31A4470
:10454000FB68DA60FB68FF2283F84420FB68FF22E7
:1045500083F845203B68002B14D1FB681B69002BB6
:104560001AD0FB681033184601F028FA0346002BD6
:1045700012D00D4B4FF080521A60BFF34F8FBFF334
:104580006F8F09E0FB6810331846FFF7CFFAFB681E
:1045900024331846FFF7CAFAFFF7A6FC0123184692
:1045A0001037BD4680BD00BF04ED00E090B58BB074
:1045B00002AFF860B9601346FB71FB68002B09D1AC
:1045C0004FF0500383F31188BFF36F8FBFF34F8F0A
:1045D0003B61FEE7BB68002B02D10023FB6104E0D6
:1045E000FB68BA6802FB03F3FB61FB6950331846B2
:1045F000FFF75EFDB861BB69002B0BD0BB69503380
:104600007B61FC79BB690093F868B9687A692346D5
:1046100000F006F8BB6918462437BD4690BD00BFC0
:1046200080B584B000AFF860B9607A60FB70BB6899
:10463000002B03D1BB69BA691A6002E0BB697A68D2
:104640001A60BB69FA68DA63BB69BA681A64B86948
:104650000121FFF743FFBB69FA7883F84C20FB7810
:104660007320F968BA680CF071FE1037BD4680BD42
:1046700080B586B000AF786039607B68002B09D1C7
:104680004FF0500383F31188BFF36F8FBFF34F8F49
:104690003B61FEE73A687B689A4209D94FF05003C4
:1046A00083F31188BFF36F8FBFF34F8FFB60FEE77B
:1046B000786800210222FFF779FF78617B69002B7F
:1046C00002D07B693A689A637B6918461837BD4601
:1046D00080BD00BF90B591B002AFF860B9607A605C
:1046E0003B6000237B63FB683B633B6B002B09D182
:1046F0004FF0500383F31188BFF36F8FBFF34F8FD9
:10470000BB62FEE7BB68002B03D13B6B1B6C002B2D
:1047100001D1012300E00023002B09D14FF0500309
:1047200083F31188BFF36F8FBFF34F8F7B62FEE778
:104730003B68022B03D13B6BDB6B012B01D10123C7
:1047400000E00023002B09D14FF0500383F31188C0
:10475000BFF36F8FBFF34F8F3B62FEE701F064FB47
:104760000346002B02D17B68002B01D1012300E01E
:104770000023002B09D14FF0500383F31188BFF3BE
:104780006F8FBFF34F8FFB61FEE7FFF77FFB3B6B44
:104790009A6B3B6BDB6B9A4202D33B68022B36D1A0
:1047A0003B6B18460DF002FB0146BA687C683B681B
:1047B00000935A2023460DF03BFD386BB9683A68E8
:1047C00000F050FAF8623B6B5B6A002B10D03B6B39
:1047D0002433184601F0F2F80346002B13D04F4B58
:1047E0004FF080521A60BFF34F8FBFF36F8F0AE014
:1047F000FB6A002B07D0494B4FF080521A60BFF381
:104800004F8FBFF36F8FFFF76FFB012381E07B6852
:10481000002B10D1FFF768FB3B6B18460DF0C6FA72
:104820000146BA687C683B6800935A2023460DF025
:10483000FFFC00236DE07B6B002B06D107F1140316
:10484000184601F08FF901237B63FFF74DFB00F061
:10485000E9FDFFF71BFB3B6B93F84430DBB25BB227
:10486000B3F1FF3F03D13B6B002283F844203B6B45
:1048700093F84530DBB25BB2B3F1FF3F03D13B6B42
:10488000002283F84520FFF72FFB07F114023B1DA0
:104890001046194601F088F90346002B24D1386BE5
:1048A00000F0DAFA0346002B18D03B6B03F110023C
:1048B0007B681046194601F025F8386B00F064FA61
:1048C00000F0BEFD0346002B22D1144B4FF0805266
:1048D0001A60BFF34F8FBFF36F8F19E0386B00F092
:1048E00053FA00F0ADFD50E7386B00F04DFA00F0E0
:1048F000A7FD3B6B18460DF059FA0146BA687C6873
:104900003B6800935A2023460DF092FC002300E000
:104910003BE718463C37BD4690BD00BF04ED00E0C4
:10492000B0B590B002AFF860B9607A603B60002328
:104930007B63FB683B633B6B002B09D14FF050035B
:1049400083F31188BFF36F8FBFF34F8F7B62FEE756
:10495000BB68002B03D13B6B1B6C002B01D10123E7
:1049600000E00023002B09D14FF0500383F311889E
:10497000BFF36F8FBFF34F8F3B62FEE701F054FA36
:104980000346002B02D17B68002B01D1012300E0FC
:104990000023002B09D14FF0500383F31188BFF39C
:1049A0006F8FBFF34F8FFB61FEE7FFF76FFA3B6B33
:1049B0009B6BFB62FB6A002B6AD03B6BDB68BB62C4
:1049C000386BB96800F0BAF93B68002B33D13B6B08
:1049D00018460DF0EBF90546BB6818460DF0E6F9F0
:1049E00002467C683B6800935C20294623460DF014
:1049F0001FFCFB6A5A1E3B6B9A633B6B1B68002BC8
:104A000004D101F04DFB02463B6B5A603B6B1B69C6
:104A1000002B39D03B6B1033184600F0CFFF034614
:104A2000002B31D06C4B4FF080521A60BFF34F8F88
:104A3000BFF36F8F28E03B6B18460DF0B7F90546C2
:104A4000BB6818460DF0B2F902467C683B680093DB
:104A50005C20294623460DF0EBFB3B6BBA6ADA601B
:104A60003B6B5B6A002B0FD03B6B2433184600F086
:104A7000A5FF0346002B07D0574B4FF080521A601A
:104A8000BFF34F8FBFF36F8FFFF72EFA01239EE026
:104A90007B68002B15D1FFF727FA3B6B18460DF00A
:104AA00085F90546BB6818460DF080F902467C681A
:104AB0003B6800935C20294623460DF0B9FB002398
:104AC00085E07B6B002B06D107F11403184601F03B
:104AD00049F801237B63FFF707FA00F0A3FCFFF717
:104AE000D5F93B6B93F84430DBB25BB2B3F1FF3FD7
:104AF00003D13B6B002283F844203B6B93F8453095
:104B0000DBB25BB2B3F1FF3F03D13B6B002283F812
:104B10004520FFF7E9F907F114023B1D104619463D
:104B200001F042F80346002B31D1386B00F07EF9DA
:104B30000346002B25D03B6B1B68002B08D1FFF7E9
:104B4000A5F93B6B5B68184601F08CF9FFF7CCF9CF
:104B50003B6B03F124027B681046194600F0D2FE3D
:104B6000386B00F011F900F06BFC0346002B2DD1DF
:104B7000194B4FF080521A60BFF34F8FBFF36F8F06
:104B800024E0386B00F000F900F05AFC0DE7386BB8
:104B900000F0FAF800F054FC386B00F047F90346D7
:104BA000002B13D03B6B18460DF000F90546BB688F
:104BB00018460DF0FBF802467C683B6800935C20C9
:104BC000294623460DF034FB002300E0EDE61846AD
:104BD0003837BD46B0BD00BF04ED00E080B584B0FD
:104BE00000AF78607B68002B09D14FF0500383F34E
:104BF0001188BFF36F8FBFF34F8FBB60FEE7FFF7E6
:104C000045F97B689B6BFB60FFF76EF9FB68184604
:104C10001037BD4680BD00BF80B584B000AF78605E
:104C20007B68FB60FB68002B09D14FF0500383F3D6
:104C30001188BFF36F8FBFF34F8FBB60FEE7FB6838
:104C400018460DF0B3F803465F2019460CF0EAFA57
:104C5000F86800F049F9F868FFF7CAFA1037BD465E
:104C600080BD00BF80B586B000AFF860B9607A60E3
:104C700000237B61FB689B6B3B61FB681B6C002B1B
:104C80000DD1FB681B68002B4FD1FB685B68184691
:104C900001F064F97861FB6800225A6045E07B68A6
:104CA000002B1AD1FB689A68FB681B6C1046B96828
:104CB0001A460BF0F9F9FB689A68FB681B6C1A44FA
:104CC000FB689A60FB689A68FB685B689A422CD321
:104CD000FB681A68FB689A6027E0FB68DA68FB6883
:104CE0001B6C1046B9681A460BF0DEF9FB68DA68EF
:104CF000FB681B6C5B421A44FB68DA60FB68DA688D
:104D0000FB681B689A4207D2FB685A68FB681B6CF9
:104D10005B421A44FB68DA607B68022B05D13B6971
:104D2000002B02D03B69013B3B613B695A1CFB688D
:104D30009A637B6918461837BD4680BD80B582B03E
:104D400000AF786039607B681B6C002B19D07B68E2
:104D5000DA687B681B6C1A447B68DA607B68DA6807
:104D60007B685B689A4203D37B681A687B68DA6069
:104D70007B68DA687B681B6C386811461A460BF052
:104D800093F90837BD4680BD80B584B000AF786028
:104D9000FFF77CF87B6893F84530FB7313E07B6882
:104DA0005B6A002B0AD07B682433184600F006FEAD
:104DB0000346002B03D000F055FF00E007E0FB7B2B
:104DC000013BDBB2FB7397F90F30002BE7DC7B680C
:104DD000FF2283F84520FFF787F8FFF757F87B6835
:104DE00093F84430BB7313E07B681B69002B0ED033
:104DF0007B681033184600F0E1FD0346002B01D01C
:104E000000F030FFBB7B013BDBB2BB7300E003E093
:104E100097F90E30002BE7DC7B68FF2283F84420F3
:104E2000FFF762F81037BD4680BD00BF80B584B083
:104E300000AF7860FFF72AF87B689B6B002B02D1EC
:104E40000123FB6001E00023FB60FFF74DF8FB68E6
:104E500018461037BD4680BD80B584B000AF78607D
:104E6000FFF714F87B689A6B7B68DB6B9A4202D180
:104E70000123FB6001E00023FB60FFF735F8FB68CE
:104E800018461037BD4680BD80B584B000AF78604D
:104E900039600023FB601FE0124AFB6852F8333090
:104EA000002B16D10F49FB683A6841F833200D4AB0
:104EB000FB68DB0013447A685A607B6818460CF084
:104EC00075FF02463B68712011461A460CF0E6F960
:104ED00005E0FB680133FB60FB68072BDCD910376A
:104EE000BD4680BDD0CE002080B485B000AF7860D4
:104EF0000023FB6016E00F4AFB68DB0013445A688E
:104F00007B689A420BD10B4AFB68002142F83310B0
:104F1000084AFB68DB00134400225A6005E0FB6886
:104F20000133FB60FB68072BE5D91437BD465DF8FC
:104F3000047B7047D0CE002080B58CB004AFF86001
:104F4000B9603B601346FB80FB889B001846FFF767
:104F5000AFF878617B69002B0ED06C20FFF7A8F8C2
:104F6000F861FB69002B03D0FB697A691A6305E0DD
:104F70007869FFF73DF901E00023FB61FB69002B35
:104F800013D0FA88BB6A0093FB6A0193FB69029312
:104F900000230393F868B9683B6800F00FF8F869DC
:104FA00000F0A4F80123BB6102E04FF0FF33BB61C6
:104FB000BB6918462037BD4680BD00BF80B588B0AC
:104FC00000AFF860B9607A603B603B6B1A6B7B683E
:104FD0009B001046A5211A460BF066F93B6B1A6B35
:104FE00079686FF040430B449B001344BB61BB697D
:104FF00023F00703BB61BB6903F00703002B09D053
:105000004FF0500383F31188BFF36F8FBFF34F8FBF
:105010007B61FEE70023FB6113E0BA68FB69134480
:1050200019783A6BFB69134430330A461A71BA682F
:10503000FB6913441B78002B00D105E0FB690133A9
:10504000FB61FB690F2BE8D93B6B002283F84320FF
:10505000BB6A062B01D90623BB623B6BBA6ADA62D4
:105060003B6BBA6ADA643B6B00221A653B6B043314
:105070001846FEF77BFD3B6B18331846FEF776FDAE
:105080003B6B3A6B1A61BB6AC3F107023B6B9A61D7
:105090003B6B3A6B5A623B6B00221A660023FB6142
:1050A00009E03A6BFB6914339B00134400225A60F9
:1050B000FB690133FB61FB69022BF2D93B6B0022D8
:1050C0005A663B6B002283F86820B869F9683A6831
:1050D000FEF7DEFD02463B6B1A60FB6A002B02D036
:1050E000FB6A3A6B1A602037BD4680BDB0B584B00C
:1050F00002AF7860FEF7CAFE3C4B1B6801333B4AA7
:1051000013603B4B1B68002B09D1394A7B68136045
:10511000364B1B68012B10D100F0CAFD0DE0354B5A
:105120001B68002B09D1324B1B68DA6A7B68DB6A8B
:105130009A4202D82E4A7B6813602F4B1B680133BA
:105140002D4A13602C4B1A687B685A647B68002BCD
:1051500016D07B6818460CF0BFFC78687B6803F1BA
:1051600034017B68DA6A7B681B6B1D467B681B68B1
:105170001C467B681B6BE31A00932B460CF0D2FF96
:105180007B6818460CF02CFD7B68DB6A1A4601230D
:1051900003FA02F2194B1B681343184A13607B6829
:1051A000DA6A13469B0013449B00154A1A447B6835
:1051B000043310461946FEF7E5FCFEF795FE0D4B4D
:1051C0001B68002B0ED00A4B1B68DA6A7B68DB6A0F
:1051D0009A4207D20B4B4FF080521A60BFF34F8FA9
:1051E000BFF36F8F0837BD46B0BD00BFACBC002019
:1051F000ACBB0020B8BC0020C8BC0020B4BC002060
:10520000B0BB002004ED00E080B584B000AF786052
:105210000023FB607B68002B1AD0144B1B68002B0B
:1052200009D04FF0500383F31188BFF36F8FBFF3A2
:105230004F8FBB60FEE700F0F5F8232079680BF094
:10524000F1FF7868002101F0E1F800F0F9F8F8606A
:10525000FB68002B07D1064B4FF080521A60BFF35A
:105260004F8FBFF36F8F1037BD4680BDD4BC002079
:1052700004ED00E080B584B000AF7860FEF706FE74
:105280007B68002B02D13D4B1B6800E07B68FB6014
:10529000FB6818460CF08AFD0346292019460BF0DE
:1052A000C1FFFB6804331846FEF7C8FC0346002B19
:1052B00015D1FB68DA6A324913469B0013449B0000
:1052C0000B441B68002B0AD1FB68DB6A1A460123DA
:1052D0009340DA432B4B1B6813402A4A1360FB6848
:1052E0009B6A002B04D0FB6818331846FEF7A6FC17
:1052F000FB6818461B210CF0B5FCFB680433224800
:105300001946FEF73FFCFEF7EFFD204B1B68002B14
:1053100005D0FEF7BBFD00F053FDFEF7E5FD174B92
:105320001B68FA689A4226D1184B1B68002B16D0CE
:10533000174B1B68002B09D04FF0500383F31188E3
:10534000BFF36F8FBFF34F8FBB60FEE7114B4FF082
:1053500080521A60BFF34F8FBFF36F8F0BE00A4B81
:105360001A680D4B1B689A4203D1044B00221A6045
:1053700001E000F017FA1037BD4680BDACBB00203D
:10538000B0BB0020B4BC002098BC0020B8BC0020FA
:10539000D4BC002004ED00E0ACBC002080B586B099
:1053A00002AF00230093194B019319481949802239
:1053B0000023FFF7C1FDF860FB68012B15D14FF00A
:1053C000500383F31188BFF36F8FBFF34F8FBB6020
:1053D000114B4FF0FF321A60104B01221A60104B34
:1053E00000221A60FEF7C6FC0DE0FB68B3F1FF3F38
:1053F00009D14FF0500383F31188BFF36F8FBFF3D0
:105400004F8F7B60FEE71037BD4680BDD0BC0020CB
:105410007D5C000868240108CCBC0020B8BC0020DA
:10542000B0BC002080B400AF044B1B680133034ABA
:105430001360BD465DF8047B704700BFD4BC0020FC
:1054400080B584B000AF0023FB600023BB60444BF9
:105450001B68002B09D14FF0500383F31188BFF371
:105460006F8FBFF34F8F3B60FEE7FEF70FFD3C4BA6
:105470001B68013B3A4A1360394B1B68002B67D10C
:10548000384B1B68002B63D034E0374BDB68DB689C
:10549000FB60FB6818331846FEF7D0FBFB6804334B
:1054A0001846FEF7CBFBFB6818460CF099FBFB682F
:1054B000DB6A1A46012303FA02F22C4B1B681343E2
:1054C0002A4A1360FB68DA6A13469B0013449B0068
:1054D000274A1A44FB68043310461946FEF752FB6C
:1054E000FB68DA6A234B1B68DB6A9A4202D3224BC1
:1054F00001221A601C4B1B68002BC6D1FB68002BD5
:1055000001D000F05DFC1D4B1B687B607B68002BAD
:1055100010D000F07DF80346002B02D0164B01227C
:105520001A607B68013B7B607B68002BF1D1134BD9
:1055300000221A60104B1B68002B09D00123BB60AE
:105540000F4B4FF080521A60BFF34F8FBFF36F8F36
:10555000FEF7CAFCBB6818461037BD4680BD00BFC9
:10556000D4BC0020ACBC00206CBC0020B4BC00202B
:10557000B0BB0020ACBB0020C0BC0020BCBC0020E5
:1055800004ED00E080B483B000AF054B1B687B6086
:105590007B6818460C37BD465DF8047B704700BF3A
:1055A000B0BC002080B582B000AFFEF745FD0023FF
:1055B0007B60044B1B683B603B6818460837BD4660
:1055C00080BD00BFB0BC002080B485B000AF786063
:1055D0007B68002B02D10D4B1B6800E07B68FB60F1
:1055E000FB68002B09D14FF0500383F31188BFF300
:1055F0006F8FBFF34F8FBB60FEE7FB6834331846F5
:105600001437BD465DF8047B704700BFACBB00207B
:1056100080B586B000AF00237B61574B1B68002B21
:1056200040F09880554B1B6801333B61534A3B69FE
:1056300013603B69002B1FD1514B1B681B68002B6B
:1056400009D04FF0500383F31188BFF36F8FBFF37E
:105650004F8F3B60FEE74A4B1B68FB60494B1B6862
:10566000474A1360474AFB681360474B1B68013386
:10567000454A136000F0A4FB444B1B683A699A4208
:1056800053D33F4B1B681B68002B01D1012300E063
:105690000023002B04D03D4B4FF0FF321A6044E052
:1056A000374B1B68DB68DB68BB60BB685B687B6093
:1056B0003A697B689A4203D2344A7B68136034E0CB
:1056C000BB6804331846FEF7B9FABB689B6A002B27
:1056D00004D0BB6818331846FEF7B0FABB6818460A
:1056E0000CF07EFABB68DB6A1A46012303FA02F269
:1056F000274B1B681343264A1360BB68DA6A1346BC
:105700009B0013449B00234A1A44BB680433104691
:105710001946FEF737FABB68DA6A1F4B1B68DB6A6B
:105720009A4201D301237B61ABE71B4B1B68DA6A0A
:10573000184913469B0013449B000B441B68012B24
:1057400001D901237B61154B1B68002B01D109F0A6
:105750001DFF06E0114B1B680133104A136009F06E
:1057600015FF0F4B1B68002B01D001237B617B6968
:1057700018461837BD4680BDD4BC0020B0BC002000
:1057800064BC002068BC0020C4BC0020CCBC00204D
:10579000B4BC0020B0BB0020ACBB0020BCBC0020CF
:1057A000C0BC002080B588B000AF4E4B1B68002BFA
:1057B00003D04D4B01221A6091E04B4B00221A603E
:1057C00009F0D4FE0246494B1A60484B1A68484B10
:1057D0001B689A4209D9474B1B68196E434A1068E7
:1057E000434A1268821A0A441A66404B1B68404AB0
:1057F0001360404B1B681B6BFB614FF0A533BB6113
:10580000FB691A68BB699A4211D1FB6904331A68B3
:10581000BB699A420BD1FB6908331A68BB699A428B
:1058200005D1FB690C331A68BB699A4208D0314B29
:105830001A68304B1B6834331046194609F0CAFD0C
:105840002D4B1B68FB60FB68B3FA83F3FB72FB7A9A
:10585000C3F11F037B6129497A6913469B001344F6
:105860009B000B441B68002B09D14FF0500383F3BE
:105870001188BFF36F8FBFF34F8F7B60FEE77A69AC
:1058800013469B0013449B001C4A13443B613B6935
:105890005B685A683B695A603B695A683B690833E0
:1058A0009A4204D13B695B685A683B695A603B691C
:1058B0005B68DB680F4A13600E4B1B683433184675
:1058C0000F4905220CF02EFD0346002B05D0094B95
:1058D0001B6818460CF042F901E00CF0E1F82037A3
:1058E000BD4680BDD4BC0020C0BC0020DCBC002074
:1058F000D8BC0020ACBB0020B4BC0020B0BB002052
:105900006824010880B584B000AF786039607B6896
:10591000002B09D14FF0500383F31188BFF36F8F31
:10592000BFF34F8FFB60FEE7064B1B6818337868A8
:105930001946FEF74BF93868012100F067FD103772
:10594000BD4680BDACBB002080B586B000AFF8601E
:10595000B9607A60FB68002B09D14FF0500383F3E4
:105960001188BFF36F8FBFF34F8F7B61FEE7114B41
:105970001B68002B09D14FF0500383F31188BFF34C
:105980006F8FBFF34F8F3B61FEE70B4B1B68BA680D
:1059900042F000429A61084B1B681833F8681946B8
:1059A000FEF7F0F87868012100F030FD1837BD46A9
:1059B00080BD00BFD4BC0020ACBB002080B586B049
:1059C00000AF78607B68DB68DB683B613B69002B7C
:1059D00009D14FF0500383F31188BFF36F8FBFF3EA
:1059E0004F8FFB60FEE73B6918331846FEF726F938
:1059F000204B1B68002B22D13B6904331846FEF76D
:105A00001DF93B6918460CF0EBF83B69DB6A1A4656
:105A1000012303FA02F2184B1B681343164A136062
:105A20003B69DA6A13469B0013449B00134A1A44ED
:105A30003B69043310461946FEF7A4F805E03B69BC
:105A400018330F481946FEF79DF83B69DA6A0D4B8B
:105A50001B68DB6A9A4205D901237B610A4B01224C
:105A60001A6001E000237B617B6918461837BD4648
:105A700080BD00BFD4BC0020B4BC0020B0BB00205F
:105A80006CBC0020ACBB0020C0BC002080B586B040
:105A900000AF786039602E4B1B68002B09D14FF0A6
:105AA000500383F31188BFF36F8FBFF34F8FFB60F9
:105AB000FEE73B6843F000427B681A607B68DB6866
:105AC0003B613B69002B09D14FF0500383F31188F0
:105AD000BFF36F8FBFF34F8FBB60FEE77868FEF7B1
